:020000040800F2
:10000000A81C0020C9010008551100084D11000866
:100010005111000865030008751100080000000078
:1000200000000000000000000000000009020008BD
:10003000690300080000000075020008850200083E
:10004000E3010008E3010008E3010008E301000800
:10005000E3010008E3010008E3010008E3010008F0
:10006000E3010008E3010008E3010008E3010008E0
:10007000E3010008E3010008E3010008E3010008D0
:10008000E3010008E3010008E3010008E3010008C0
:10009000E3010008E3010008E3010008E3010008B0
:1000A00000000000E3010008E301000869110008F6
:1000B000E3010008E3010008E3010008E301000890
:1000C000E3010008E3010008E3010008E301000880
:1000D000E3010008E3010008E3010008E301000870
:1000E000E3010008E3010008E3010008E301000860
:1000F000E3010008E3010008E3010008E301000850
:10010000E3010008E3010008E3010008E30100083F
:10011000E3010008E3010008E3010008000000001B
:10012000E301000800F002F800F03AF80AA090E8B5
:10013000000C82448344AAF10107DA4501D100F0A2
:100140002FF8AFF2090EBAE80F0013F0010F18BF35
:10015000FB1A43F001031847CC250000EC250000F2
:10016000103A24BF78C878C1FAD8520724BF30C8E3
:1001700030C144BF04680C607047000000230024B5
:1001800000250026103A28BF78C1FBD8520728BFA7
:1001900030C148BF0B6070471FB51FBD10B510BD03
:1001A00000F0A6F8114603B401F036F803BCFFF7DF
:1001B000F3FF01F033F800F0C0F803B4FFF7EEFFEF
:1001C00003BC00F0C7F80000094880470948004711
:1001D000FEE7FEE7FEE7FEE7FEE7FEE7FEE7FEE7F7
:1001E000FEE7FEE704480549054A064B7047000054
:1001F0006511000825010008A8160020A81C002091
:10020000A8180020A81800201EF0040F0CBFEFF360
:100210000880EFF30980816911F8021CD9B901B592
:1002200090E80F10E047BDE800508CE80300194B40
:1002300093E80600914208BF704719B12CE9F00F0E
:10024000C1F838C01A60906BB0E8F00F80F30988ED
:100250006FF0020E7047104A13689942FAD801B540
:1002600052F821C00FC8E047BDE80050CCF80000AC
:100270007047000001B501F059FABDE80140EFF305
:10028000098CD4E701B501F0B5FEBDE80140EFF3FC
:10029000098CCCE720000020B42600084FF00002B3
:1002A00000B5134694469646203922BFA0E80C506C
:1002B000A0E80C50B1F12001BFF4F7AF090728BF47
:1002C000A0E80C5048BF0CC05DF804EB890028BFC3
:1002D00040F8042B08BF704748BF20F8022B11F0EC
:1002E000804F18BF00F8012B704770477047704768
:1002F000754600F02BF8AE4605006946534620F0DF
:100300000700854618B020B5FFF76CFFBDE8204018
:100310004FF000064FF000074FF000084FF0000BC1
:10032000AC46ACE8C009ACE8C009ACE8C009ACE830
:10033000C00921F007018D46704710B50446AFF3A0
:1003400000802046BDE81040FFF737BF00487047E7
:10035000B000002001491820ABBEFEE726000200D5
:1003600070470000FEE70000704700007047000083
:1003700070470000704700007047000070470000A1
:100380007047000070470000704700007047000091
:100390007047000070470000704700007047000081
:1003A0007047000070470000704700007047000071
:1003B0007047000070470000704700007047000061
:1003C0007047000070470000704700007047000051
:1003D0007047000070470000704700007047000041
:1003E0007047000070470000704700007047000031
:1003F00041F2A460C2F200000068704740F20000C1
:1004000041F2A461C2F20000C2F2000140680A6831
:10041000104408607047000080B5032000F0CEF85B
:100420000F2000F009F800281CBF012080BD00F05B
:100430005BF8002080BD0000B0B586B043F6200117
:10044000C4F202010A68044642F010020A60096818
:1004500001A801F0100101910199694600F01AFA12
:1004600000F038FA4DF68361C4F21B31A0FB0101A4
:100470004FF0FF3000EB914140F2101041F20002CA
:10048000C2F20000C4F2010240F2E7330025C0E9E5
:100490000021C0E90253056100F0E2FC054610B1FD
:1004A000284606B0B0BD40F21010C2F2000000F0C5
:1004B0006FFD05460028F3D11B2000F043F80F2CF8
:1004C0000DD81B2021460022002500F04BF840F2F9
:1004D0000000C2F200000460284606B0B0BD01254D
:1004E000284606B0B0BD000080B584B00020CDE93C
:1004F000020043F62400C4F20200016841F000410A
:100500000160016801F000410191019950F8041C5B
:1005100041F0010140F8041C50F8041C01F00101F5
:1005200001910199016841F080510160006800F07B
:1005300080500190019802A800F050F800F08EF869
:1005400004B080BD002848BF704700F01F010122A1
:1005500002FA01F14EF200124009CEF2000242F816
:100560002010704710B54EF60C5CCEF2000CDCF893
:100570000030C3F3022E8EF00704042C28BF04249D
:10058000BEF103034FF0FF3E0EFA04F438BF002320
:10059000A14399400EFA03F39A4300F00F03043B82
:1005A0001143634409010C3300F16042B0F1FF3F95
:1005B000C8BF02F56443197010BD00004EF60C511F
:1005C000CEF200010A684FF6FF031A4060F30A22D8
:1005D00042F0806040F0FD700860704747F2000C08
:1005E000C4F2000CDCF80030026823F0E00340F2B3
:1005F00000411A43C4F20101CCF800204A6822F4F9
:1006000080324A600A6822F480320A608A6822F4E2
:1006100080328A60CA6822F48032CA604068C203AD
:100620000FD4820313D4C20703D08A6842F4803205
:100630008A60800758BF7047C86840F48030C8603F
:1006400070470A6842F480320A608203EBD54A6838
:1006500042F480324A60C207EBD0E6E71020C4F2D1
:100660000E200121016070472DE9F041002800F0C3
:10067000C18043F60807C4F202070446D7F8F8031E
:100680000D4600F00100884215D2012D05D1D7F8A2
:10069000F80340F00400C7F8F803D7F8F80320F097
:1006A00001002843C7F8F803D7F8F80300F0010069
:1006B000A84240F09F802068810705D53968A2686C
:1006C00021F0F00111433960C00741D1D7F8F80398
:1006D00000F00100A84215D9012D05D1D7F8F80383
:1006E00040F00400C7F8F803D7F8F80320F0010041
:1006F0002843C7F8F803D7F8F80300F00100A84230
:1007000040F078802068410705D53968E26821F417
:10071000E06111433960000706D53868216920F48B
:10072000605040EAC1003860396842F20040C1F3CD
:100730008102C0F2F400DFE802F002432A2F57F8EA
:10074000040C4FF48031C0F3423001FA00F037E07E
:100750006068032809D002280FD157F8081C8903C4
:100760005CBF0120BDE8F08147E057F8081C890113
:100770005CBF0120BDE8F0813FE057F8081C01286C
:1007800036D189075CBF0120BDE8F08135E041F238
:100790000020C0F27A0013E042F2A863C1F3834262
:1007A000C0F60003C1F381513E689A5CF30344BF75
:1007B00041F20020C0F27A0001315043B0FBF1F069
:1007C000396842F29062C1F30311C0F60002515C35
:1007D00040F2080220FA01F140F20000C2F20000EB
:1007E0000068C2F200021160BDE8F041FFF724BECC
:1007F000890502D40120BDE8F081396821F00301A8
:1008000008433860FFF7F4FD61680646032941F2AA
:1008100088382AD0022936D001290FD1386800F053
:100820000C0004283FF452AFFFF7E2FD801B404567
:100830004FF00300F2D9BDE8F08100BF386810F036
:100840000C0F3FF443AFFFF7D3FD801B40454FF043
:10085000030088BFBDE8F081F0E700BFFFF7C8FDE7
:10086000801B40454FF00300E5D8386800F00C00CD
:100870000C28F3D12AE700BFFFF7BAFD801B4045E3
:100880004FF00300D7D8386800F00C000828F3D1E7
:100890001CE700000F22026043F60802C4F20202C5
:1008A000136803F003034360136803F0F0038360ED
:1008B000136803F4E063C360D2F800C04FF4E06350
:1008C00003EADC030361D2F8F80300F001000860DA
:1008D0007047000040F2080043F60801C2F2000031
:1008E000C4F202010068096842F2A062C1F3C221A9
:1008F000C0F60002515CC840704700002DE9F0438B
:1009000083B0002800F0A88243F600060446C4F233
:100910000206B068B168227800F00C09D00701F433
:10092000803710D0B9F1080F06D0B9F10C0F40F0A4
:10093000BB80002F00F0B8803068800303D560686A
:10094000002800F08982207880072ED5B9F1040FA5
:100950001DD0B9F10C0F08BF002F18D0E068002897
:1009600000F04D810020C4F2472001210160FFF713
:100970003FFD05463068800710D4FFF739FD401B66
:1009800002284FF00300F5D903B0BDE8F0833068CA
:10099000800703D5E068012840F05E827068216915
:1009A00020F4F85040EA012070602078C00625D479
:1009B000207800073CD42078400751D4656ACDB137
:1009C000B9F10C0F40F0D880012D00F04582B068DD
:1009D000A16A00F480328A4240F03E82E16A00F46B
:1009E00070128A4240F03882216B00F44000884245
:1009F00040F03282002003B0BDE8F083B9F1000F6F
:100A00003DD0A069002800F0A3800020C4F2472058
:100A100001210162FFF7ECFC054600BF306880054C
:100A200000F1CC80FFF7E4FC401B0228F6D913E06C
:100A30006069002876D00020C4F247200121C0F868
:100A40008016FFF7D5FC0546706B8007B3D4FFF71F
:100A5000CFFC401B0228F7D9032003B0BDE8F08388
:100A6000706AC00031D4706A4FF0010840F08050C5
:100A70007062706A00F080500090009827E0306843
:100A8000800503D5A069002800F0E681206A71681E
:100A900001F46041884240F29F80B16811F0F00F8C
:100AA00000F0128100217FE16068002800F0D5800D
:100AB000012806D03168052840F01C8141F48020CF
:100AC0003060306840F480301AE14FF0000847F29F
:100AD0000007C4F200073868C00512D4386840F433
:100AE00080703860FFF784FC054600BF3868C00599
:100AF00007D4FFF77DFC401B64284FF00300F5D9B5
:100B000042E7A068002800F08F80012806D0716BB2
:100B1000052840F0B98041F480607063706B40F448
:100B20008070B7E00020C4F247200021C0F8801692
:100B3000FFF75EFC054600BF706B80077FF53BAF9B
:100B4000FFF756FC401B02284FF00300F4D91BE7C7
:100B50000020C4F2472000210162FFF749FC05464E
:100B6000306880057FF524AFFFF742FC401B022868
:100B70004FF00300F4D907E70027C4F2472700200D
:100B80003866FFF735FC022D05460BD13068800131
:100B900040F1C680FFF72CFC401B02284FF00300F9
:100BA000F4D9F1E6306880017FF524AFFFF720FC2F
:100BB000401B02284FF00300F4D9E5E67068D4E941
:100BC000072120F4604008437060706820F07F4087
:100BD00040EA02607060EBE6716821F46041014315
:100BE00071607168E26921F07F4141EA02617160E0
:100BF000B16811F0F00F00F0AF80002100E100209B
:100C0000C4F2472000210160FFF7F2FB054600BF58
:100C1000306880077FF5C9AEFFF7EAFB401B02286A
:100C20004FF00300F4D9AFE6706B20F4807070636E
:100C3000706B20F480607063FFF7DAFB054641F2C9
:100C4000883700BF706B800535D5FFF7D1FB401B9F
:100C5000B8424FF00300F5D996E6306820F48030B2
:100C60003060306820F480203060FFF7C1FB05461B
:100C7000306880037FF567AEFFF7BAFB401B64283E
:100C80004FF00300F4D97FE621F480707063706B3D
:100C900020F480607063FFF7ABFB054641F28837B4
:100CA000706B800507D4FFF7A3FB401BB8424FF0E1
:100CB0000300F5D968E6B8F1000F3FF47FAE706A23
:100CC00020F08050706279E6716AC90047F2000135
:100CD000C4F2000156D4726A42F080527262726AA3
:100CE00002F080520192019A0A68716A21F08051E3
:100CF000716248E021F480303060306820F4802058
:100D00003060FFF775FB0546306880033FF51BAE8A
:100D1000FFF76EFB401B64284FF00300F4D933E665
:100D2000B06804F128030ECB20F47D000843104383
:100D30001843B06001203866FFF75AFB044600BF35
:100D4000306880013FF556AEFFF752FB001B0228CA
:100D50004FF00300F4D917E6716AC90047F20001A9
:100D6000C4F200013AD4726A42F080527262726A2E
:100D700002F080520292029A0A68716A21F0805150
:100D800071622CE00A68B0F5404F4FF000010BD1C2
:100D900002F4C052B2F5C05F06D1D6F8001441F09B
:100DA0000401C6F800140121D6F8002422F0010243
:100DB0000A44C6F80024D6F8002402F001028A4250
:100DC0004AD1716821F46041014371607168E26940
:100DD00021F07F4141EA026171601EE00A68B0F5CE
:100DE000404F4FF000010BD102F4C052B2F5C05F8A
:100DF00006D1D6F8001441F00401C6F80014012110
:100E0000D6F8002422F001020A44C6F80024D6F8DD
:100E1000002402F001028A421ED1B16842F29062BF
:100E2000C1F30311C0F60002400B515C4FF4803255
:100E300002FA00F020FA01F140F20000C2F20000D4
:100E400040F208020068C2F200021160FFF7F4FAF3
:100E500000287FF499ADABE5012003B0BDE8F08335
:100E6000002804BF0120704710B5044690F83900EF
:100E700028B9002084F83800204600F087F80220C6
:100E800084F83900206840F2FF720168C4F2000261
:100E9000904226DD40F60002C4F20002904229D0C2
:100EA00040F60002C4F20102904223D040F6004214
:100EB000C4F2000290421DD040F6FF32C4F200029C
:100EC000904221DD40F6FF32C4F2010290422BDC59
:100ED00040F60042C4F20002904231D040F60002D7
:100EE0002AE0B0F1804F05D040F20042C4F2000287
:100EF0009042E1D1A26821F07001114340F6FF3227
:100F0000C4F200029042DDDCB0F1804F18D040F214
:100F10000042C4F20002904212D040F60002C4F235
:100F2000000290420CD00FE041F20002C4F2010234
:100F3000904205D040F60042C4F20102904203D133
:100F4000226921F440711143636921F08001D4F8D2
:100F500004C0E268194301600121C262C0F828C0E0
:100F600041610269D20703D0026922F001020261E5
:100F7000002084F83E1084F83A1084F83B1084F87E
:100F80003C1084F83D1084F8391010BD7047000003
:100F900090F8391001291CBF01207047022180F808
:100FA0003910006840F2FF72C168C4F2000290423A
:100FB00041F00101C16009DCB0F1804F12D040F274
:100FC0000041C4F2000188420CD012E040F600015A
:100FD000C4F20101884205D040F60001C4F20001CC
:100FE000884206D1816801F00701062904BF00206C
:100FF0007047016841F00101016000207047000066
:1010000070470000B0B504460068C168026902EA92
:101010000105A9071AD4680732D428074CD4E8067A
:1010200065D4E80706D020686FF001010161204611
:1010300000F080F8680658BFB0BD21686FF040022C
:1010400020460A61BDE8B04000F07EB86FF00201B2
:101050000161012121768069800707D02046FFF7D2
:10106000CFFF002020766807D7D509E0204600F0A2
:101070005DF8204600F05CF8002020766807CCD5AB
:1010800020686FF00401016102212176806910F46B
:10109000407F07D02046FFF7B3FF002020762807C7
:1010A000BDD509E0204600F041F8204600F040F8A8
:1010B000002020762807B2D520686FF00801016172
:1010C00004212176C069800707D02046FFF798FFEA
:1010D00000202076E806A4D509E0204600F026F896
:1010E000204600F025F800202076E80699D52068F3
:1010F0006FF01001016108212176C06910F4407F72
:1011000007D02046FFF77CFF00202076E80791D02B
:1011100089E7204600F00AF8204600F009F8002090
:101120002076E8073FF486AF7DE7000070470000B7
:1011300070470000006841F20001C4F201018842DA
:1011400008BFFFF75BB9704770470000FEE700007B
:10115000FEE70000FEE700004EF21000CEF20000B5
:10116000006870477047000040F21010C2F20000A3
:10117000FFF748BFFEE70000B0B541F2A065C2F23C
:1011800000052978044629B900F0A0F8022808DBF8
:101190000120287020684FF0FF31BDE8B04000F01A
:1011A000CFB82878012818BFB0BD20684FF0FF31B4
:1011B000BDE8B04000F0C4B8006800F0DFB800003F
:1011C00010B50446002000F0F5F8002820601CBF90
:1011D000012010BD0520214600F024F9002010BD9B
:1011E000B0B541F2A065C2F200052978044629B9DC
:1011F00000F06CF8022806DB012028702068BDE8AA
:10120000B04000F0F3B82878012818BFB0BD2068BE
:10121000BDE8B04000F0EAB800F076B892B0FFF751
:10122000FBF8002447F200000D94CDE90B44CDE912
:101230000944CDE907440494CDE90244CDE90044D2
:10124000C4F200000168012262F3CC210160022097
:10125000CDE905220E904FF480300F904FF44020DE
:1012600010904FF48000119005A8FFF747FB20B1C4
:10127000EFF3108072B600BFFEE70F20009003204E
:10128000CDE9010468460121CDE90344FFF7ECF9FB
:1012900018B1EFF3108072B6FEE743F61C00C4F2FB
:1012A0000200016841F020010160016801F02001A5
:1012B00005910599016841F001010160006800F0A5
:1012C00001000590059800BFFEE70000EFF30580E0
:1012D00048B9EFF3108030B9EFF3118018B9EFF38C
:1012E0001480C0070AD110B540F20C00C2F2000011
:1012F000047A2046FFF73EF8204610BD42F2750CF6
:10130000C0F6000C00DF704780B500F08DF8FFF7E5
:1013100033F8EFF3058028B9EFF3108010B9EFF33D
:10132000118030B16FF00500FFF722F86FF0050073
:1013300080BD42F28D0CC0F6000C00DF80BD0000C5
:10134000B0B50D460446FFF72DF8EFF3058028B938
:10135000EFF3108010B9EFF3118038B120466FF031
:101360000501FFF72DF86FF00500B0BD42F2252C06
:101370002046C0F6000C294600DFB0BD10B504467B
:10138000FFF71AF8EFF3058028B9EFF3108010B9D2
:10139000EFF3118038B120466FF00501FFF710F828
:1013A0006FF0050010BD42F20D3C2046C0F6000C67
:1013B00000DF10BD10B50446FFF704F8EFF3058019
:1013C00028B9EFF3108010B9EFF3118038B1002085
:1013D0006FF005010024FEF7F3FF204610BD42F236
:1013E0002D4C2046C0F6000C00DF10BD10B50446A1
:1013F000FEF7ECFFEFF3058028B9EFF3108010B98A
:10140000EFF3118038B120466FF00501FEF7D8FFE9
:101410006FF0050010BD42F2BD4C2046C0F6000C36
:1014200000DF10BDFEE70000FFF750BFF0B581B050
:10143000002818BF002906D100230024FEF7A0FFD2
:10144000204601B0F0BD042AF6D2044601F10F0394
:1014500054F8085F23F0070C6368A5EB040E23F033
:101460000306AEEB06066645A64624D22C68002C81
:10147000E2D06B68671B23F00306BF1B6745AE46CF
:1014800019D22568002DD7D063682F1B23F00306DF
:10149000BF1B6745A6460ED22C68002CCCD06B68CB
:1014A000671B23F00306BF1B6745AE4603D22568C2
:1014B000002DD1D1C0E7D0E90046051955F8047CCC
:1014C00006EB0C04A742446004D2A5F108035C605B
:1014D000DEF8043073B123F00303DEF8004003EBC1
:1014E0000E0543F80E404CEA0203CEF80050AE461B
:1014F0006B6003E04CEA0203CEF804300EF10804FE
:101500002346FEF73DFF204601B0F0BD10B5002890
:1015100018BF002905D100220024FEF739FF20461C
:1015200010BDA1F1080C00F10804644518D0226830
:10153000002AF0D06245234613D01468002CEAD06C
:10154000644513460DD02268002AE4D06245234644
:1015500007D01468002CDED064451346E7D100E0C4
:10156000002351F8042C446822F00302A21A4260BE
:101570001BB1DCF800201A6002E0002241F8042CC4
:1015800001220124FEF704FF204610BD10B508B16A
:10159000420705D000220024FEF7FCFE204610BDC5
:1015A0001829F7D311F00702F4D10B18A3F108049E
:1015B0008460002443F8084C836810220160426074
:1015C0005A60C46001220124FEF7E4FE204610BDEB
:1015D000B0B500281AD000F1140151E8004F14B939
:1015E000BFF32F8F04E0226841E8002303B1F4E742
:1015F0003CB1011D51E8002F531C41E8003505B1F5
:10160000F8E72146FEF7BEFE2046B0BD00200021CF
:101610000024FEF7B7FE2046B0BD0000B0B500289C
:1016200022D0C2688A421FD802698A421CD900F1BE
:10163000140213680B60BFF35F8F52E8003F0C6821
:101640009C42F6D142E8001505B1F2E7021D52E8CE
:10165000003F5C1E42E8004505B1F8E70022002487
:10166000FEF792FE2046B0BD6FF003026FF0030458
:10167000FEF78AFE2046B0BD2DE9F0410E46014638
:1016800000284FF0000018BF002E01D1BDE8F08106
:101690001446002AFAD01F46002B08BFBDE8F0818F
:1016A00004FB06704FF00008C1E90068C1E9024779
:1016B000C1E904070846314622463B46FEF766FE6E
:1016C000701E0BD010F00302A6F1020112D03819DF
:1016D000012A386004D1074608460BE03D4620E069
:1016E0000719022A076001D1F01E03E03A193A6097
:1016F000301F174603293D4613D3610004EB440213
:10170000A30000BF3E193E6026447D183D5126448B
:10171000BD1847F814503519FE18BE5004382F462E
:10172000F0D10120C5F80080BDE8F08170B540F22D
:101730000C04C2F20004B4F8540004F15605D5E8D4
:101740005F1F11B9BFF32F8F04E04A1EC5E8532F66
:1017500003B1F4E7090437D004F15A0610E000BFE2
:101760008847B4F85400D5E85F1F11B9BFF32F8F35
:1017700004E04A1EC5E8532F03B1F4E7090423D05F
:10178000D6E85F1F4A1C904200D80022C6E8532FBB
:1017900003B1F5E7E06D89B250F82100A0B10178FE
:1017A00001390629DDD8DFE801F0070609060B0D2F
:1017B0000400216FD4E7D4E7216ED1E7616ECFE753
:1017C000A16ECDE7E16ECBE70020BDE8704000F0F0
:1017D0001FB900002DE9F04140F20C08C2F20008E8
:1017E000D8F82C40002C00F01181E0690138E0614C
:1017F00018BFBDE8F081012608F11C0700250DE0A7
:10180000104600F10801C4E902500C602469002C64
:1018100000F0F680E069002840F0F480607813382A
:101820004FEA3010082800F2A980DFE800F005A791
:10183000080B253F59738D00FEF7D0FD9EE0FEF7A3
:10184000CFFD9BE020460178012912D1C06878B114
:10185000017801290DD1C06850B10178012908D162
:10186000C06828B10178012903D1C0680028EAD1F5
:101870000020FEF77BFD81E020460178012912D18E
:10188000C06878B1017801290DD1C06850B10178E4
:10189000012908D1C06828B10178012903D1C068A5
:1018A0000028EAD10020FEF781FD67E0204601789C
:1018B000012912D1C06878B1017801290DD1C06821
:1018C00050B10178012908D1C06828B101780129F7
:1018D00003D1C0680028EAD10020FEF77BFD4DE06F
:1018E00020460178012912D1C06878B10178012918
:1018F0000DD1C06850B10178012908D1C06828B164
:101900000178012903D1C0680028EAD10020FEF740
:1019100043FD33E020460178012912D1C06878B137
:10192000017801290DD1C06850B10178012908D191
:10193000C06828B10178012903D1C0680028EAD124
:101940000020FEF72BFD19E020460178012912D175
:10195000C06878B1017801290DD1C06850B1017813
:10196000012908D1C06828B10178012903D1C068D4
:101970000028EAD10020FEF713FD00BFA06B016A2A
:101980002046FEF733FDE06830B1A1688160A168B0
:10199000002918BFC860E56094F9201038466670C9
:1019A0008268002A3FF42DAF92F920308B4219DB78
:1019B000906800283FF424AF90F920308B4214DB6C
:1019C0008268002A3FF41DAF92F920308B4209DB78
:1019D000906800283FF414AF90F920308B421346F2
:1019E000DEDA03E00346104600E01346C4E90203D2
:1019F0009C6000F10C010C602469002C7FF40AAF9C
:101A0000002401E000206061C8F82C40BDE8F081AE
:101A100070B540F20C06C2F200060446327A7069D4
:101A2000002C57D094F92010022A2DD160B390F9E0
:101A30002020914228DD0121417006F11C018B68B4
:101A4000002B00F09C8093F92050954240F3938046
:101A50009968002900F0928091F92050954240F356
:101A60009B808B68002B00F08A8093F92050954270
:101A700040F381809968002900F0808091F920501E
:101A800095421D46DBDC88E00120607006F11C00F9
:101A90008268002A5AD092F920308B424EDB90683F
:101AA000002852D090F920308B4254DB8268002A03
:101AB0004CD092F920308B4240DB9068002844D013
:101AC00090F920308B421346E2DAC4E902039C60AD
:101AD000C46070BD022A3DD1E0B3746AD4B394F9F6
:101AE000201090F920209142D8BF70BDE16839B133
:101AF000A3688B60A368002B18BFD9600021E16048
:101B00000121417006F11C018B6873B393F92050D9
:101B1000954226DD996839B391F92050954234DD1C
:101B20008B6813B393F9205095421ADD9968D9B1A7
:101B300091F9205095421D46E6DC27E00346104609
:101B4000C4E902039C60C46070BD10460021C4E972
:101B50000210846070BD1346C4E902039C60C46037
:101B600070BD0D46194611E0194601F10802002327
:101B7000C0E9023116E00D4619460EE01946002371
:101B800001F10802C0E902310CE01D46C0E902156E
:101B9000A86001F10C0205E01D46C0E90215A8602D
:101BA00001F10C021060FEF71DFC02206070B461B0
:101BB00000F0EEF82046BDE87040FEF715BC0000CE
:101BC00001468068002808BF70478268002A8A6042
:101BD00018BFD1600021C16070470000002908BF14
:101BE000704791F920C083682BB393F92020624598
:101BF00013DB9868A0B190F92020624512DB83685E
:101C0000CBB193F92020624507DB986890B190F939
:101C1000202062451A46E6DA05E00246184602E050
:101C2000184608E01A46C1E90202916000F10C0270
:101C300011607047184600F108020023C1E9023024
:101C400011607047C168002908BF704782688A60C8
:101C50008268002A18BFD1600021C160704700006F
:101C6000002852D001460A78012A18D1C9680029F3
:101C70004BD00A78012A12D1C968002945D00A78C8
:101C8000012A0CD1C96800293FD00A78012A06D15F
:101C9000C968002908BF70470A78012AE6D0C268DF
:101CA0003AB1836893608368002B18BFDA60002222
:101CB000C26090F920C08B681BB393F92020624565
:101CC00017DB9968E1B191F9202062451EDB8B6832
:101CD000BBB193F9202062450BDB996881B191F982
:101CE000202062451A46E6DAC0E902129060C86018
:101CF00070470A461946C0E902129060C8607047F2
:101D000019460022C0E90221886070471A46C0E9DE
:101D100002129060C860704701210028417008BF1E
:101D2000704740F20C01C2F2000190F920C01C3152
:101D30008B682BB393F92020624513DB9968A1B11E
:101D400091F92020624512DB8B68CBB193F92020FA
:101D5000624507DB996891B191F9202062451A46E6
:101D6000E6DA05E00A46194602E0194608E01A4696
:101D7000C0E90212906001F10C0210607047194630
:101D800001F108020023C0E9023110607047000031
:101D900040F20C00C2F200004169002908BF704700
:101DA000086B8A6B824207D9006842F6A562CEF2C0
:101DB0005A22904200D170470120FFF733BB000048
:101DC00010B504460220607040F20C00C2F2000020
:101DD0008461FFF7DDFF2046BDE81040FEF704BB3D
:101DE000F0B581B040F20C07C2F200073A7A022A3D
:101DF00019D17C690646002C4FF000007BD00D46BF
:101E0000796A002977D020462946FEF7E5FA681C52
:101E100066702AD0F86A002846D0C169A94205D95F
:101E20000121002243E0002001B0F0BD03696D1ADA
:101E3000002B62D0D9698D4263D318696D1A0028CE
:101E400063D0C1698D420DD303696D1A002B54D044
:101E5000D9698D4255D318696D1A002855D0C169CA
:101E60008D42E3D201211A4621E007F13000002221
:101E7000034600BF1B6811465BB11A69194642B19F
:101E8000166911462EB13269314602F11003002A5B
:101E9000F0D14FF0FF32E26100222261002961613E
:101EA00018BF01F1100011E000220020002102F112
:101EB0001003002AE561C4E9040208BF07F12C03FE
:101EC0001C6021B1C169491BC161143004607C6A86
:101ED00044B1A068002878621CBF07F11C01C160F2
:101EE0000020E06002206070BC61FFF751FF2046D7
:101EF000FEF77AFA012001B0F0BD00210246002071
:101F0000D5E7012102461846D1E700201A46CDE761
:101F100070B515460E460446FEF768FAA06B616977
:101F20000662E369581C40F20C00C2F200000ED0B9
:101F300011B9C26AA24217D1226922B1D669516190
:101F400061693344D36161B9C26275B915E011B9F1
:101F5000026BA24208D12269002A1CBF516161694B
:101F600041B10A61002161613DB12046BDE8704088
:101F7000FFF74EBD0263002DF7D10121617094F986
:101F800020101C3082681AB392F920308B4217DB84
:101F90009068E0B190F920308B421EDB8268BAB1C4
:101FA00092F920308B420BDB9068E0B190F9203041
:101FB0008B421346E6DAC4E902039C60C46070BD3C
:101FC00003461046C4E902039C60C46070BD10461D
:101FD0000021C4E90210846070BD1346C4E9020305
:101FE0009C60C46070BD10460021C4E9021084608A
:101FF00070BD0000B0B5FFF7AFF840F20C05C2F2BB
:102000000005E968286D01310028E96018BF8047A4
:10201000FFF7E0FB0020FFF7FBFC296C59B1AA6930
:10202000A86B90421CBFC5E90E21B0BDE96B19B188
:102030000139E96300D0B0BD297A0229FBD16C6A6D
:10204000002CF8D094F8201090F82000814218BF9E
:10205000B0BD2046FFF7F6FDA86BFFF75DFEA86B4D
:10206000FEF7C0F92046FFF7ABFE286CC5E90E402D
:10207000B0BD000010B540F20C00C2F20000047ABE
:102080002046FEF777F9204610BD00002DE9F0410B
:1020900040F20C07C2F20007387A38B1012840F04C
:1020A000B880FEF76BF90020BDE8F08142F2F056EF
:1020B000C0F60006706D472807D86FF00A00FEF7DB
:1020C00057F94FF0FF30BDE8F081F468002C00F0C4
:1020D000A080358A002D00F09C8007F108009C212B
:1020E000FEF7DCF8FC65B068D6E90B4138642046A1
:1020F000A7F85450FFF74AFA002818BFC7F88040E5
:10210000D6E90541D6E907582046FFF73FFAD7F848
:102110008010002818BF2146796728464146FFF7FE
:1021200035FAD7F88020002818BF2A46D6E9095189
:10213000BA672846FFF72AFA746BD7F88010002890
:1021400018BF2946F9674CB12168D4E9022320461B
:10215000FFF792FA002818BFC7F88440B46B4CB15F
:102160002168D4E902232046FFF786FA002818BF29
:10217000C7F88840F46B4CB12168D4E902232046AB
:10218000FFF77AFA002818BFC7F88C40346C4CB1BE
:102190002168D4E902232046FFF76EFA002818BF11
:1021A000C7F89040746C4CB12168D4E902232046F2
:1021B000FFF762FA002818BFC7F89440B46C4CB11E
:1021C0002168D4E902232046FFF756FA002818BFF9
:1021D000C7F89840F46C4CB12168D4E9022320463A
:1021E000FFF74AFA002818BFC7F89C40346D4CB17D
:1021F0002168D4E902232046FFF73EFA002818BFE1
:10220000C7F8A04001203872FEF7B8F80020BDE8FA
:10221000F0814FF0FF304FF0FF34FEF7A9F8204671
:10222000BDE8F08170B540F20C02C2F200025569BF
:102230000446A5B354B32078042827D1207EB0B338
:102240000E46E178CA0702D0E268AA424CD0002EBE
:102250003ED088070AD5E06895F9201090F9202033
:102260008A4203DA80F82010FFF7FAFC2046314654
:10227000FEF79AF853203146FFF7B2FD70B32046BF
:102280002946FFF7ABFC6FF0010070BD20466FF0F0
:1022900003016FF00304FEF793F8204670BD20465B
:1022A0006FF00701FEF78CF84FF0FF3070BDE86A61
:1022B0000021E56060610028216118BF04610120F0
:1022C000EC62207620460121FEF772F8002070BDF6
:1022D0002046FEF779F86FF0020070BD2046FEF749
:1022E00065F86FF0010070BDFF2807D120466FF040
:1022F0000F01FEF765F86FF0020070BD411C20462B
:102300002176FEF755F8002070BD000010B5044698
:10231000D0B12078042817D1207E002868D06169C8
:10232000E06800291CBF22690A61226902F11403D6
:10233000002AE27808BF00F12C039207196051D5FA
:10234000C26A90F821C00AE020466FF003016FF0E6
:102350000304FEF735F8204610BD00BF52697AB37A
:1023600093683BB193F920304FFA8CF18B42C8BF90
:102370005FFA83FC52691AB393683BB193F920105A
:102380004FFA8CF39942C8BF5FFA81FC5269BAB127
:1023900093683BB193F920104FFA8CF39942C8BF70
:1023A0005FFA81FC52695AB19368002BD6D093F939
:1023B00020104FFA8CF39942C8BF5FFA81FCCDE739
:1023C00090F8201061450DD080F820C0FFF748FC40
:1023D00008E000BF2046FFF7F3FB6FF00201002288
:1023E000FFF796FDA0680028F4D10020FFF710FB4E
:1023F000A0780021C007217009D040F20C01C2F280
:102400000001D1F8940038B12146FFF707F92046C2
:10241000FDF7D4FF002010BDD1F880002146FFF762
:1024200075F82046FDF7CAFF002010BD70B550B109
:102430008568D0E900462DB3A90726D1C0681B28BE
:1024400023D900200DE00026002440F20C01C2F246
:102450000001D1F8940000B3FFF7BAF8054628B39D
:1024600001200421A87000202970EE70C5E9014008
:10247000C5E903006861287628462146FDF79AFFE2
:10248000284670BDC0680028DFD000206FF008012A
:102490000025FDF795FF284670BDD1F880001C216E
:1024A0000122FEF7C3FF05460028D9D100206FF0B6
:1024B00004010025FDF784FF284670BD70B540F289
:1024C0000C01C2F200014D690446CDB17CB1207807
:1024D00004280CD1207ED8B1E168A94220D0204642
:1024E0006FF00D01FDF76CFF6FF0020070BD20462C
:1024F0006FF003016FF00304FDF762FF204670BD2B
:1025000020466FF00701FDF75BFF4FF0FF3070BD15
:1025100020466FF00E01FDF753FF6FF0020070BD13
:1025200001382076C1B22046FDF752FF207E0028F8
:102530001CBF002070BD606900281CBF21690161BB
:10254000216901F114020029E17808BF05F12C028C
:10255000890710602FD5E96A95F8210000E04969E4
:1025600039B38A682AB192F9202043B29A42C8BF8F
:1025700010464969E9B18A682AB192F9202043B22C
:102580009A42C8BF1046496999B18A682AB192F93E
:10259000202043B29A42C8BF1046496949B18A68AF
:1025A000002ADCD092F9202043B29A42C8BF1046DC
:1025B000D5E785F82000A06898B12046FFF700FB1A
:1025C0000021002205460026FFF7A2FCE86A01214F
:1025D00060610120C4E9035620762046EC62FDF7D5
:1025E000E7FE00200024FFF713FA204670BD00002C
:1025F00002000000E8030000050000005001002078
:1026000010000000000000000000000000000000BA
:102610000000000000000000000000009001002009
:10262000001000000000000000000000000000009A
:10263000000000000000000000000000000000009A
:102640000000000000020000B8260008F426000880
:10265000DC26000804000000141200209C12002058
:10266000000000000000000000000000000000006A
:10267000000000000000000000000000000000005A
:10268000000000000000000090110020C411002094
:102690000000000000000000010203040607080912
:1026A0000000000001020304030406080C101820B7
:1026B00030000000000000000000000000000000EA
:1026C0001412002044000000A012002000020000AC
:1026D00001000000000000000000000000000000F9
:1026E000000000009011002034000000C411002000
:1026F0005000000000000000000000005812002000
:1027000044000000A0140020000200002800000087
:1027100000000000000000005254582056352E34AE
:102720002E3000004827000800000020B000000004
:1027300060010008F8270008B0000020F81B000026
:102740007C010008000000001000000001000000F3
:1027500068FF1F0018270008C08CFB020000000063
:102760000000000000000000000000000000000069
:102770000000000000000000000000000000000059
:102780000000000000000000000000000000000049
:102790000000000000000000000000000000000039
:1027A0000000000000000000000000000000000029
:1027B0000000000000000000000000000000000019
:1027C0000000000000000000000000000000000009
:1027D00000000000000000000000000000000000F9
:1027E00000000000000000000000000000000000E9
:0827F0000000000000000000E1
:0400000508000125C9
:00000001FF
